{
  "_format": "hh-sol-artifact-1",
  "contractName": "TimeReserveNote",
  "sourceName": "contracts/TimeReserveNote.sol",
  "abi": [
    {
      "inputs": [],
      "stateMutability": "nonpayable",
      "type": "constructor"
    },
    {
      "inputs": [
        {
          "internalType": "address",
          "name": "sender",
          "type": "address"
        },
        {
          "internalType": "uint256",
          "name": "tokenId",
          "type": "uint256"
        },
        {
          "internalType": "address",
          "name": "owner",
          "type": "address"
        }
      ],
      "name": "ERC721IncorrectOwner",
      "type": "error"
    },
    {
      "inputs": [
        {
          "internalType": "address",
          "name": "operator",
          "type": "address"
        },
        {
          "internalType": "uint256",
          "name": "tokenId",
          "type": "uint256"
        }
      ],
      "name": "ERC721InsufficientApproval",
      "type": "error"
    },
    {
      "inputs": [
        {
          "internalType": "address",
          "name": "approver",
          "type": "address"
        }
      ],
      "name": "ERC721InvalidApprover",
      "type": "error"
    },
    {
      "inputs": [
        {
          "internalType": "address",
          "name": "operator",
          "type": "address"
        }
      ],
      "name": "ERC721InvalidOperator",
      "type": "error"
    },
    {
      "inputs": [
        {
          "internalType": "address",
          "name": "owner",
          "type": "address"
        }
      ],
      "name": "ERC721InvalidOwner",
      "type": "error"
    },
    {
      "inputs": [
        {
          "internalType": "address",
          "name": "receiver",
          "type": "address"
        }
      ],
      "name": "ERC721InvalidReceiver",
      "type": "error"
    },
    {
      "inputs": [
        {
          "internalType": "address",
          "name": "sender",
          "type": "address"
        }
      ],
      "name": "ERC721InvalidSender",
      "type": "error"
    },
    {
      "inputs": [
        {
          "internalType": "uint256",
          "name": "tokenId",
          "type": "uint256"
        }
      ],
      "name": "ERC721NonexistentToken",
      "type": "error"
    },
    {
      "inputs": [
        {
          "internalType": "address",
          "name": "owner",
          "type": "address"
        }
      ],
      "name": "OwnableInvalidOwner",
      "type": "error"
    },
    {
      "inputs": [
        {
          "internalType": "address",
          "name": "account",
          "type": "address"
        }
      ],
      "name": "OwnableUnauthorizedAccount",
      "type": "error"
    },
    {
      "anonymous": false,
      "inputs": [
        {
          "indexed": true,
          "internalType": "address",
          "name": "owner",
          "type": "address"
        },
        {
          "indexed": true,
          "internalType": "address",
          "name": "approved",
          "type": "address"
        },
        {
          "indexed": true,
          "internalType": "uint256",
          "name": "tokenId",
          "type": "uint256"
        }
      ],
      "name": "Approval",
      "type": "event"
    },
    {
      "anonymous": false,
      "inputs": [
        {
          "indexed": true,
          "internalType": "address",
          "name": "owner",
          "type": "address"
        },
        {
          "indexed": true,
          "internalType": "address",
          "name": "operator",
          "type": "address"
        },
        {
          "indexed": false,
          "internalType": "bool",
          "name": "approved",
          "type": "bool"
        }
      ],
      "name": "ApprovalForAll",
      "type": "event"
    },
    {
      "anonymous": false,
      "inputs": [
        {
          "indexed": true,
          "internalType": "string",
          "name": "id",
          "type": "string"
        }
      ],
      "name": "ImageSet",
      "type": "event"
    },
    {
      "anonymous": false,
      "inputs": [
        {
          "indexed": true,
          "internalType": "address",
          "name": "previousOwner",
          "type": "address"
        },
        {
          "indexed": true,
          "internalType": "address",
          "name": "newOwner",
          "type": "address"
        }
      ],
      "name": "OwnershipTransferred",
      "type": "event"
    },
    {
      "anonymous": false,
      "inputs": [
        {
          "indexed": true,
          "internalType": "address",
          "name": "from",
          "type": "address"
        },
        {
          "indexed": true,
          "internalType": "address",
          "name": "to",
          "type": "address"
        },
        {
          "indexed": true,
          "internalType": "uint256",
          "name": "tokenId",
          "type": "uint256"
        }
      ],
      "name": "Transfer",
      "type": "event"
    },
    {
      "inputs": [
        {
          "internalType": "uint256",
          "name": "",
          "type": "uint256"
        }
      ],
      "name": "allImageIds",
      "outputs": [
        {
          "internalType": "string",
          "name": "",
          "type": "string"
        }
      ],
      "stateMutability": "view",
      "type": "function"
    },
    {
      "inputs": [
        {
          "internalType": "address",
          "name": "",
          "type": "address"
        },
        {
          "internalType": "uint256",
          "name": "",
          "type": "uint256"
        }
      ],
      "name": "allMintedData",
      "outputs": [
        {
          "internalType": "uint256",
          "name": "tokenId",
          "type": "uint256"
        },
        {
          "internalType": "uint256",
          "name": "mintedAt",
          "type": "uint256"
        },
        {
          "internalType": "string",
          "name": "id",
          "type": "string"
        },
        {
          "internalType": "address",
          "name": "by",
          "type": "address"
        }
      ],
      "stateMutability": "view",
      "type": "function"
    },
    {
      "inputs": [
        {
          "internalType": "address",
          "name": "to",
          "type": "address"
        },
        {
          "internalType": "uint256",
          "name": "tokenId",
          "type": "uint256"
        }
      ],
      "name": "approve",
      "outputs": [],
      "stateMutability": "nonpayable",
      "type": "function"
    },
    {
      "inputs": [
        {
          "internalType": "address",
          "name": "owner",
          "type": "address"
        }
      ],
      "name": "balanceOf",
      "outputs": [
        {
          "internalType": "uint256",
          "name": "",
          "type": "uint256"
        }
      ],
      "stateMutability": "view",
      "type": "function"
    },
    {
      "inputs": [
        {
          "internalType": "string",
          "name": "id_",
          "type": "string"
        }
      ],
      "name": "enableMinting",
      "outputs": [],
      "stateMutability": "nonpayable",
      "type": "function"
    },
    {
      "inputs": [],
      "name": "getAllImages",
      "outputs": [
        {
          "components": [
            {
              "internalType": "string",
              "name": "id",
              "type": "string"
            },
            {
              "components": [
                {
                  "internalType": "string",
                  "name": "title",
                  "type": "string"
                },
                {
                  "internalType": "string",
                  "name": "subtitle",
                  "type": "string"
                },
                {
                  "internalType": "string",
                  "name": "description",
                  "type": "string"
                },
                {
                  "internalType": "string",
                  "name": "imageHash",
                  "type": "string"
                },
                {
                  "internalType": "string",
                  "name": "mintPrice",
                  "type": "string"
                }
              ],
              "internalType": "struct TimeReserveNote.ImageData",
              "name": "data",
              "type": "tuple"
            },
            {
              "components": [
                {
                  "internalType": "uint256",
                  "name": "totalSupply",
                  "type": "uint256"
                },
                {
                  "internalType": "uint256",
                  "name": "maxPerWallet",
                  "type": "uint256"
                },
                {
                  "internalType": "uint256",
                  "name": "totalLimit",
                  "type": "uint256"
                },
                {
                  "internalType": "bool",
                  "name": "isLimited",
                  "type": "bool"
                }
              ],
              "internalType": "struct TimeReserveNote.ImageSupply",
              "name": "supply",
              "type": "tuple"
            },
            {
              "internalType": "uint256",
              "name": "createdAt",
              "type": "uint256"
            },
            {
              "components": [
                {
                  "internalType": "bool",
                  "name": "mintingEnabled",
                  "type": "bool"
                },
                {
                  "internalType": "uint256",
                  "name": "enabledAt",
                  "type": "uint256"
                }
              ],
              "internalType": "struct TimeReserveNote.ImageAccess",
              "name": "access",
              "type": "tuple"
            }
          ],
          "internalType": "struct TimeReserveNote.Image[]",
          "name": "",
          "type": "tuple[]"
        }
      ],
      "stateMutability": "view",
      "type": "function"
    },
    {
      "inputs": [
        {
          "internalType": "uint256",
          "name": "tokenId",
          "type": "uint256"
        }
      ],
      "name": "getApproved",
      "outputs": [
        {
          "internalType": "address",
          "name": "",
          "type": "address"
        }
      ],
      "stateMutability": "view",
      "type": "function"
    },
    {
      "inputs": [
        {
          "internalType": "string",
          "name": "",
          "type": "string"
        }
      ],
      "name": "images",
      "outputs": [
        {
          "internalType": "string",
          "name": "id",
          "type": "string"
        },
        {
          "components": [
            {
              "internalType": "string",
              "name": "title",
              "type": "string"
            },
            {
              "internalType": "string",
              "name": "subtitle",
              "type": "string"
            },
            {
              "internalType": "string",
              "name": "description",
              "type": "string"
            },
            {
              "internalType": "string",
              "name": "imageHash",
              "type": "string"
            },
            {
              "internalType": "string",
              "name": "mintPrice",
              "type": "string"
            }
          ],
          "internalType": "struct TimeReserveNote.ImageData",
          "name": "data",
          "type": "tuple"
        },
        {
          "components": [
            {
              "internalType": "uint256",
              "name": "totalSupply",
              "type": "uint256"
            },
            {
              "internalType": "uint256",
              "name": "maxPerWallet",
              "type": "uint256"
            },
            {
              "internalType": "uint256",
              "name": "totalLimit",
              "type": "uint256"
            },
            {
              "internalType": "bool",
              "name": "isLimited",
              "type": "bool"
            }
          ],
          "internalType": "struct TimeReserveNote.ImageSupply",
          "name": "supply",
          "type": "tuple"
        },
        {
          "internalType": "uint256",
          "name": "createdAt",
          "type": "uint256"
        },
        {
          "components": [
            {
              "internalType": "bool",
              "name": "mintingEnabled",
              "type": "bool"
            },
            {
              "internalType": "uint256",
              "name": "enabledAt",
              "type": "uint256"
            }
          ],
          "internalType": "struct TimeReserveNote.ImageAccess",
          "name": "access",
          "type": "tuple"
        }
      ],
      "stateMutability": "view",
      "type": "function"
    },
    {
      "inputs": [
        {
          "internalType": "address",
          "name": "owner",
          "type": "address"
        },
        {
          "internalType": "address",
          "name": "operator",
          "type": "address"
        }
      ],
      "name": "isApprovedForAll",
      "outputs": [
        {
          "internalType": "bool",
          "name": "",
          "type": "bool"
        }
      ],
      "stateMutability": "view",
      "type": "function"
    },
    {
      "inputs": [
        {
          "internalType": "string",
          "name": "id_",
          "type": "string"
        },
        {
          "internalType": "uint256",
          "name": "quantity_",
          "type": "uint256"
        }
      ],
      "name": "mint",
      "outputs": [],
      "stateMutability": "payable",
      "type": "function"
    },
    {
      "inputs": [],
      "name": "name",
      "outputs": [
        {
          "internalType": "string",
          "name": "",
          "type": "string"
        }
      ],
      "stateMutability": "view",
      "type": "function"
    },
    {
      "inputs": [],
      "name": "owner",
      "outputs": [
        {
          "internalType": "address",
          "name": "",
          "type": "address"
        }
      ],
      "stateMutability": "view",
      "type": "function"
    },
    {
      "inputs": [
        {
          "internalType": "uint256",
          "name": "tokenId",
          "type": "uint256"
        }
      ],
      "name": "ownerOf",
      "outputs": [
        {
          "internalType": "address",
          "name": "",
          "type": "address"
        }
      ],
      "stateMutability": "view",
      "type": "function"
    },
    {
      "inputs": [],
      "name": "renounceOwnership",
      "outputs": [],
      "stateMutability": "nonpayable",
      "type": "function"
    },
    {
      "inputs": [
        {
          "internalType": "address",
          "name": "from",
          "type": "address"
        },
        {
          "internalType": "address",
          "name": "to",
          "type": "address"
        },
        {
          "internalType": "uint256",
          "name": "tokenId",
          "type": "uint256"
        }
      ],
      "name": "safeTransferFrom",
      "outputs": [],
      "stateMutability": "nonpayable",
      "type": "function"
    },
    {
      "inputs": [
        {
          "internalType": "address",
          "name": "from",
          "type": "address"
        },
        {
          "internalType": "address",
          "name": "to",
          "type": "address"
        },
        {
          "internalType": "uint256",
          "name": "tokenId",
          "type": "uint256"
        },
        {
          "internalType": "bytes",
          "name": "data",
          "type": "bytes"
        }
      ],
      "name": "safeTransferFrom",
      "outputs": [],
      "stateMutability": "nonpayable",
      "type": "function"
    },
    {
      "inputs": [
        {
          "internalType": "address",
          "name": "operator",
          "type": "address"
        },
        {
          "internalType": "bool",
          "name": "approved",
          "type": "bool"
        }
      ],
      "name": "setApprovalForAll",
      "outputs": [],
      "stateMutability": "nonpayable",
      "type": "function"
    },
    {
      "inputs": [
        {
          "components": [
            {
              "internalType": "string",
              "name": "id",
              "type": "string"
            },
            {
              "components": [
                {
                  "internalType": "string",
                  "name": "title",
                  "type": "string"
                },
                {
                  "internalType": "string",
                  "name": "subtitle",
                  "type": "string"
                },
                {
                  "internalType": "string",
                  "name": "description",
                  "type": "string"
                },
                {
                  "internalType": "string",
                  "name": "imageHash",
                  "type": "string"
                },
                {
                  "internalType": "string",
                  "name": "mintPrice",
                  "type": "string"
                }
              ],
              "internalType": "struct TimeReserveNote.ImageData",
              "name": "data",
              "type": "tuple"
            },
            {
              "components": [
                {
                  "internalType": "uint256",
                  "name": "totalSupply",
                  "type": "uint256"
                },
                {
                  "internalType": "uint256",
                  "name": "maxPerWallet",
                  "type": "uint256"
                },
                {
                  "internalType": "uint256",
                  "name": "totalLimit",
                  "type": "uint256"
                },
                {
                  "internalType": "bool",
                  "name": "isLimited",
                  "type": "bool"
                }
              ],
              "internalType": "struct TimeReserveNote.ImageSupply",
              "name": "supply",
              "type": "tuple"
            },
            {
              "components": [
                {
                  "internalType": "bool",
                  "name": "mintingEnabled",
                  "type": "bool"
                },
                {
                  "internalType": "uint256",
                  "name": "enabledAt",
                  "type": "uint256"
                }
              ],
              "internalType": "struct TimeReserveNote.ImageAccess",
              "name": "access",
              "type": "tuple"
            }
          ],
          "internalType": "struct TimeReserveNote.ImageDetails",
          "name": "imageDetails_",
          "type": "tuple"
        }
      ],
      "name": "setImageData",
      "outputs": [],
      "stateMutability": "nonpayable",
      "type": "function"
    },
    {
      "inputs": [],
      "name": "showMyMints",
      "outputs": [
        {
          "components": [
            {
              "components": [
                {
                  "internalType": "string",
                  "name": "id",
                  "type": "string"
                },
                {
                  "components": [
                    {
                      "internalType": "string",
                      "name": "title",
                      "type": "string"
                    },
                    {
                      "internalType": "string",
                      "name": "subtitle",
                      "type": "string"
                    },
                    {
                      "internalType": "string",
                      "name": "description",
                      "type": "string"
                    },
                    {
                      "internalType": "string",
                      "name": "imageHash",
                      "type": "string"
                    },
                    {
                      "internalType": "string",
                      "name": "mintPrice",
                      "type": "string"
                    }
                  ],
                  "internalType": "struct TimeReserveNote.ImageData",
                  "name": "data",
                  "type": "tuple"
                },
                {
                  "components": [
                    {
                      "internalType": "uint256",
                      "name": "totalSupply",
                      "type": "uint256"
                    },
                    {
                      "internalType": "uint256",
                      "name": "maxPerWallet",
                      "type": "uint256"
                    },
                    {
                      "internalType": "uint256",
                      "name": "totalLimit",
                      "type": "uint256"
                    },
                    {
                      "internalType": "bool",
                      "name": "isLimited",
                      "type": "bool"
                    }
                  ],
                  "internalType": "struct TimeReserveNote.ImageSupply",
                  "name": "supply",
                  "type": "tuple"
                },
                {
                  "internalType": "uint256",
                  "name": "createdAt",
                  "type": "uint256"
                },
                {
                  "components": [
                    {
                      "internalType": "bool",
                      "name": "mintingEnabled",
                      "type": "bool"
                    },
                    {
                      "internalType": "uint256",
                      "name": "enabledAt",
                      "type": "uint256"
                    }
                  ],
                  "internalType": "struct TimeReserveNote.ImageAccess",
                  "name": "access",
                  "type": "tuple"
                }
              ],
              "internalType": "struct TimeReserveNote.Image",
              "name": "image",
              "type": "tuple"
            },
            {
              "components": [
                {
                  "internalType": "uint256",
                  "name": "tokenId",
                  "type": "uint256"
                },
                {
                  "internalType": "uint256",
                  "name": "mintedAt",
                  "type": "uint256"
                },
                {
                  "internalType": "string",
                  "name": "id",
                  "type": "string"
                },
                {
                  "internalType": "address",
                  "name": "by",
                  "type": "address"
                }
              ],
              "internalType": "struct TimeReserveNote.MintData",
              "name": "mintData",
              "type": "tuple"
            }
          ],
          "internalType": "struct TimeReserveNote.MintedData[]",
          "name": "",
          "type": "tuple[]"
        }
      ],
      "stateMutability": "view",
      "type": "function"
    },
    {
      "inputs": [
        {
          "internalType": "bytes4",
          "name": "interfaceId",
          "type": "bytes4"
        }
      ],
      "name": "supportsInterface",
      "outputs": [
        {
          "internalType": "bool",
          "name": "",
          "type": "bool"
        }
      ],
      "stateMutability": "view",
      "type": "function"
    },
    {
      "inputs": [],
      "name": "symbol",
      "outputs": [
        {
          "internalType": "string",
          "name": "",
          "type": "string"
        }
      ],
      "stateMutability": "view",
      "type": "function"
    },
    {
      "inputs": [
        {
          "internalType": "uint256",
          "name": "tokenId",
          "type": "uint256"
        }
      ],
      "name": "tokenURI",
      "outputs": [
        {
          "internalType": "string",
          "name": "",
          "type": "string"
        }
      ],
      "stateMutability": "view",
      "type": "function"
    },
    {
      "inputs": [
        {
          "internalType": "address",
          "name": "from",
          "type": "address"
        },
        {
          "internalType": "address",
          "name": "to",
          "type": "address"
        },
        {
          "internalType": "uint256",
          "name": "tokenId",
          "type": "uint256"
        }
      ],
      "name": "transferFrom",
      "outputs": [],
      "stateMutability": "nonpayable",
      "type": "function"
    },
    {
      "inputs": [
        {
          "internalType": "address",
          "name": "newOwner",
          "type": "address"
        }
      ],
      "name": "transferOwnership",
      "outputs": [],
      "stateMutability": "nonpayable",
      "type": "function"
    },
    {
      "inputs": [
        {
          "internalType": "address",
          "name": "",
          "type": "address"
        },
        {
          "internalType": "string",
          "name": "",
          "type": "string"
        }
      ],
      "name": "walletMints",
      "outputs": [
        {
          "internalType": "uint256",
          "name": "",
          "type": "uint256"
        }
      ],
      "stateMutability": "view",
      "type": "function"
    },
    {
      "inputs": [],
      "name": "withdraw",
      "outputs": [],
      "stateMutability": "nonpayable",
      "type": "function"
    },
    {
      "inputs": [],
      "name": "withdrawWalletAddress",
      "outputs": [
        {
          "internalType": "address payable",
          "name": "",
          "type": "address"
        }
      ],
      "stateMutability": "view",
      "type": "function"
    }
  ],
  "bytecode": "0x60806040523480156200001157600080fd5b50336040518060400160405280601181526020017f54696d652052657365727665204e6f74650000000000000000000000000000008152506040518060400160405280600381526020017f54524e00000000000000000000000000000000000000000000000000000000008152508160009081620000909190620004b3565b508060019081620000a29190620004b3565b505050600073ffffffffffffffffffffffffffffffffffffffff168173ffffffffffffffffffffffffffffffffffffffff16036200011a5760006040517f1e4fbdf7000000000000000000000000000000000000000000000000000000008152600401620001119190620005df565b60405180910390fd5b6200012b816200017360201b60201c565b5033600760006101000a81548173ffffffffffffffffffffffffffffffffffffffff021916908373ffffffffffffffffffffffffffffffffffffffff160217905550620005fc565b6000600660009054906101000a900473ffffffffffffffffffffffffffffffffffffffff16905081600660006101000a81548173ffffffffffffffffffffffffffffffffffffffff021916908373ffffffffffffffffffffffffffffffffffffffff1602179055508173ffffffffffffffffffffffffffffffffffffffff168173ffffffffffffffffffffffffffffffffffffffff167f8be0079c531659141344cd1fd0a4f28419497f9722a3daafe3b4186f6b6457e060405160405180910390a35050565b600081519050919050565b7f4e487b7100000000000000000000000000000000000000000000000000000000600052604160045260246000fd5b7f4e487b7100000000000000000000000000000000000000000000000000000000600052602260045260246000fd5b60006002820490506001821680620002bb57607f821691505b602082108103620002d157620002d062000273565b5b50919050565b60008190508160005260206000209050919050565b60006020601f8301049050919050565b600082821b905092915050565b6000600883026200033b7fffffffffffffffffffffffffffffffffffffffffffffffffffffffffffffffff82620002fc565b620003478683620002fc565b95508019841693508086168417925050509392505050565b6000819050919050565b6000819050919050565b6000620003946200038e62000388846200035f565b62000369565b6200035f565b9050919050565b6000819050919050565b620003b08362000373565b620003c8620003bf826200039b565b84845462000309565b825550505050565b600090565b620003df620003d0565b620003ec818484620003a5565b505050565b5b81811015620004145762000408600082620003d5565b600181019050620003f2565b5050565b601f82111562000463576200042d81620002d7565b6200043884620002ec565b8101602085101562000448578190505b620004606200045785620002ec565b830182620003f1565b50505b505050565b600082821c905092915050565b6000620004886000198460080262000468565b1980831691505092915050565b6000620004a3838362000475565b9150826002028217905092915050565b620004be8262000239565b67ffffffffffffffff811115620004da57620004d962000244565b5b620004e68254620002a2565b620004f382828562000418565b600060209050601f8311600181146200052b576000841562000516578287015190505b62000522858262000495565b86555062000592565b601f1984166200053b86620002d7565b60005b8281101562000565578489015182556001820191506020850194506020810190506200053e565b8683101562000585578489015162000581601f89168262000475565b8355505b6001600288020188555050505b505050505050565b600073ffffffffffffffffffffffffffffffffffffffff82169050919050565b6000620005c7826200059a565b9050919050565b620005d981620005ba565b82525050565b6000602082019050620005f66000830184620005ce565b92915050565b615436806200060c6000396000f3fe60806040526004361061019c5760003560e01c806370a08231116100ec578063b88d4fde1161008a578063e12ee76511610064578063e12ee765146105cc578063e985e9c51461060d578063ec86e3671461064a578063f2fde38b146106755761019c565b8063b88d4fde1461053d578063c87b56dd14610566578063e02354c3146105a35761019c565b80638da5cb5b116100c65780638da5cb5b1461049357806395d89b41146104be578063a22cb465146104e9578063b14ec101146105125761019c565b806370a0823114610414578063715018a6146104515780637b7284fc146104685761019c565b806323b872dd116101595780634f8ef58d116101335780634f8ef58d146103315780635addde101461035a5780635bd6094d146103975780636352211e146103d75761019c565b806323b872dd146102c85780633ccfd60b146102f157806342842e0e146103085761019c565b806301ffc9a7146101a1578063056b01ce146101de57806306fdde03146101fa578063081812fc14610225578063095ea7b31461026257806318c7ea2e1461028b575b600080fd5b3480156101ad57600080fd5b506101c860048036038101906101c391906138e5565b61069e565b6040516101d5919061392d565b60405180910390f35b6101f860048036038101906101f391906139e3565b610780565b005b34801561020657600080fd5b5061020f610b17565b60405161021c9190613ad3565b60405180910390f35b34801561023157600080fd5b5061024c60048036038101906102479190613af5565b610ba9565b6040516102599190613b63565b60405180910390f35b34801561026e57600080fd5b5061028960048036038101906102849190613baa565b610bc5565b005b34801561029757600080fd5b506102b260048036038101906102ad9190613af5565b610bdb565b6040516102bf9190613ad3565b60405180910390f35b3480156102d457600080fd5b506102ef60048036038101906102ea9190613bea565b610c87565b005b3480156102fd57600080fd5b50610306610d89565b005b34801561031457600080fd5b5061032f600480360381019061032a9190613bea565b610e62565b005b34801561033d57600080fd5b5061035860048036038101906103539190614034565b610e82565b005b34801561036657600080fd5b50610381600480360381019061037c919061407d565b6110f3565b60405161038e91906140e8565b60405180910390f35b3480156103a357600080fd5b506103be60048036038101906103b99190613baa565b61112e565b6040516103ce9493929190614103565b60405180910390f35b3480156103e357600080fd5b506103fe60048036038101906103f99190613af5565b611223565b60405161040b9190613b63565b60405180910390f35b34801561042057600080fd5b5061043b6004803603810190610436919061414f565b611235565b60405161044891906140e8565b60405180910390f35b34801561045d57600080fd5b506104666112ef565b005b34801561047457600080fd5b5061047d611303565b60405161048a919061443a565b60405180910390f35b34801561049f57600080fd5b506104a8611807565b6040516104b59190613b63565b60405180910390f35b3480156104ca57600080fd5b506104d3611831565b6040516104e09190613ad3565b60405180910390f35b3480156104f557600080fd5b50610510600480360381019061050b919061445c565b6118c3565b005b34801561051e57600080fd5b506105276118d9565b60405161053491906144bd565b60405180910390f35b34801561054957600080fd5b50610564600480360381019061055f9190614579565b6118ff565b005b34801561057257600080fd5b5061058d60048036038101906105889190613af5565b61191c565b60405161059a9190613ad3565b60405180910390f35b3480156105af57600080fd5b506105ca60048036038101906105c591906145fc565b611985565b005b3480156105d857600080fd5b506105f360048036038101906105ee9190614649565b611a6b565b6040516106049594939291906147a8565b60405180910390f35b34801561061957600080fd5b50610634600480360381019061062f919061480a565b611e95565b604051610641919061392d565b60405180910390f35b34801561065657600080fd5b5061065f611f29565b60405161066c91906149c2565b60405180910390f35b34801561068157600080fd5b5061069c6004803603810190610697919061414f565b6126f9565b005b60007f80ac58cd000000000000000000000000000000000000000000000000000000007bffffffffffffffffffffffffffffffffffffffffffffffffffffffff1916827bffffffffffffffffffffffffffffffffffffffffffffffffffffffff1916148061076957507f5b5e139f000000000000000000000000000000000000000000000000000000007bffffffffffffffffffffffffffffffffffffffffffffffffffffffff1916827bffffffffffffffffffffffffffffffffffffffffffffffffffffffff1916145b8061077957506107788261277f565b5b9050919050565b60088383604051610792929190614a14565b9081526020016040518091039020600b0160000160009054906101000a900460ff166107f3576040517f08c379a00000000000000000000000000000000000000000000000000000000081526004016107ea90614a9f565b60405180910390fd5b80600a60003373ffffffffffffffffffffffffffffffffffffffff1673ffffffffffffffffffffffffffffffffffffffff1681526020019081526020016000208484604051610843929190614a14565b90815260200160405180910390205461085c9190614aee565b6008848460405161086e929190614a14565b90815260200160405180910390206006016001015410156108c4576040517f08c379a00000000000000000000000000000000000000000000000000000000081526004016108bb90614b94565b60405180910390fd5b600883836040516108d6929190614a14565b908152602001604051809103902060060160030160009054906101000a900460ff1615610998576008838360405161090f929190614a14565b9081526020016040518091039020600601600201548160088585604051610937929190614a14565b9081526020016040518091039020600601600001546109569190614aee565b1115610997576040517f08c379a000000000000000000000000000000000000000000000000000000000815260040161098e90614c26565b60405180910390fd5b5b6000600190505b818111610b115760003343836040516020016109bd93929190614caf565b6040516020818303038152906040528051906020012090506000662386f26fc100008260001c6109ed9190614d1b565b9050600160088787604051610a03929190614a14565b90815260200160405180910390206006016000016000828254610a269190614aee565b92505081905550610a3733826127e9565b6001600a60003373ffffffffffffffffffffffffffffffffffffffff1673ffffffffffffffffffffffffffffffffffffffff1681526020019081526020016000208787604051610a88929190614a14565b90815260200160405180910390206000828254610aa59190614aee565b92505081905550610afc3387878080601f016020809104026020016040519081016040528093929190818152602001838380828437600081840152601f19601f820116905080830192505050505050508342612807565b50508080610b0990614d4c565b91505061099f565b50505050565b606060008054610b2690614dc3565b80601f0160208091040260200160405190810160405280929190818152602001828054610b5290614dc3565b8015610b9f5780601f10610b7457610100808354040283529160200191610b9f565b820191906000526020600020905b815481529060010190602001808311610b8257829003601f168201915b5050505050905090565b6000610bb48261291f565b50610bbe826129a7565b9050919050565b610bd78282610bd26129e4565b6129ec565b5050565b60098181548110610beb57600080fd5b906000526020600020016000915090508054610c0690614dc3565b80601f0160208091040260200160405190810160405280929190818152602001828054610c3290614dc3565b8015610c7f5780601f10610c5457610100808354040283529160200191610c7f565b820191906000526020600020905b815481529060010190602001808311610c6257829003601f168201915b505050505081565b600073ffffffffffffffffffffffffffffffffffffffff168273ffffffffffffffffffffffffffffffffffffffff1603610cf95760006040517f64a0ae92000000000000000000000000000000000000000000000000000000008152600401610cf09190613b63565b60405180910390fd5b6000610d0d8383610d086129e4565b6129fe565b90508373ffffffffffffffffffffffffffffffffffffffff168173ffffffffffffffffffffffffffffffffffffffff1614610d83578382826040517f64283d7b000000000000000000000000000000000000000000000000000000008152600401610d7a93929190614df4565b60405180910390fd5b50505050565b610d91612c18565b6000600760009054906101000a900473ffffffffffffffffffffffffffffffffffffffff1673ffffffffffffffffffffffffffffffffffffffff1647604051610dd990614e5c565b60006040518083038185875af1925050503d8060008114610e16576040519150601f19603f3d011682016040523d82523d6000602084013e610e1b565b606091505b5050905080610e5f576040517f08c379a0000000000000000000000000000000000000000000000000000000008152600401610e5690614ebd565b60405180910390fd5b50565b610e7d838383604051806020016040528060008152506118ff565b505050565b610e8a612c18565b600060088260000151604051610ea09190614f0e565b90815260200160405180910390206000018054610ebc90614dc3565b905014610efe576040517f08c379a0000000000000000000000000000000000000000000000000000000008152600401610ef590614f97565b60405180910390fd5b6040518060a00160405280826000015181526020018260200151815260200182604001518152602001428152602001826060015181525060088260000151604051610f499190614f0e565b90815260200160405180910390206000820151816000019081610f6c9190615163565b506020820151816001016000820151816000019081610f8b9190615163565b506020820151816001019081610fa19190615163565b506040820151816002019081610fb79190615163565b506060820151816003019081610fcd9190615163565b506080820151816004019081610fe39190615163565b50505060408201518160060160008201518160000155602082015181600101556040820151816002015560608201518160030160006101000a81548160ff0219169083151502179055505050606082015181600a0155608082015181600b0160008201518160000160006101000a81548160ff021916908315150217905550602082015181600101555050905050600981600001519080600181540180825580915050600190039060005260206000200160009091909190915090816110a99190615163565b5080600001516040516110bc9190614f0e565b60405180910390207fea2abb61d31a351bfe18aa50f577e38a47aa33b852019bec1b5ac9c97a540fd960405160405180910390a250565b600a60205281600052604060002081805160208101820180518482526020830160208501208183528095505050505050600091509150505481565b600b602052816000526040600020818154811061114a57600080fd5b90600052602060002090600402016000915091505080600001549080600101549080600201805461117a90614dc3565b80601f01602080910402602001604051908101604052809291908181526020018280546111a690614dc3565b80156111f35780601f106111c8576101008083540402835291602001916111f3565b820191906000526020600020905b8154815290600101906020018083116111d657829003601f168201915b5050505050908060030160009054906101000a900473ffffffffffffffffffffffffffffffffffffffff16905084565b600061122e8261291f565b9050919050565b60008073ffffffffffffffffffffffffffffffffffffffff168273ffffffffffffffffffffffffffffffffffffffff16036112a85760006040517f89c62b6400000000000000000000000000000000000000000000000000000000815260040161129f9190613b63565b60405180910390fd5b600360008373ffffffffffffffffffffffffffffffffffffffff1673ffffffffffffffffffffffffffffffffffffffff168152602001908152602001600020549050919050565b6112f7612c18565b6113016000612c9f565b565b6060600060098054905067ffffffffffffffff81111561132657611325613c42565b5b60405190808252806020026020018201604052801561135f57816020015b61134c61375f565b8152602001906001900390816113445790505b50905060005b6009805490508110156117ff5760006009828154811061138857611387615235565b5b90600052602060002001805461139d90614dc3565b80601f01602080910402602001604051908101604052809291908181526020018280546113c990614dc3565b80156114165780601f106113eb57610100808354040283529160200191611416565b820191906000526020600020905b8154815290600101906020018083116113f957829003601f168201915b50505050509050600060088260405161142f9190614f0e565b908152602001604051809103902090506040518060a00160405280838152602001826001016040518060a001604052908160008201805461146f90614dc3565b80601f016020809104026020016040519081016040528092919081815260200182805461149b90614dc3565b80156114e85780601f106114bd576101008083540402835291602001916114e8565b820191906000526020600020905b8154815290600101906020018083116114cb57829003601f168201915b5050505050815260200160018201805461150190614dc3565b80601f016020809104026020016040519081016040528092919081815260200182805461152d90614dc3565b801561157a5780601f1061154f5761010080835404028352916020019161157a565b820191906000526020600020905b81548152906001019060200180831161155d57829003601f168201915b5050505050815260200160028201805461159390614dc3565b80601f01602080910402602001604051908101604052809291908181526020018280546115bf90614dc3565b801561160c5780601f106115e15761010080835404028352916020019161160c565b820191906000526020600020905b8154815290600101906020018083116115ef57829003601f168201915b5050505050815260200160038201805461162590614dc3565b80601f016020809104026020016040519081016040528092919081815260200182805461165190614dc3565b801561169e5780601f106116735761010080835404028352916020019161169e565b820191906000526020600020905b81548152906001019060200180831161168157829003601f168201915b505050505081526020016004820180546116b790614dc3565b80601f01602080910402602001604051908101604052809291908181526020018280546116e390614dc3565b80156117305780601f1061170557610100808354040283529160200191611730565b820191906000526020600020905b81548152906001019060200180831161171357829003601f168201915b5050505050815250508152602001826006016040518060800160405290816000820154815260200160018201548152602001600282015481526020016003820160009054906101000a900460ff161515151581525050815260200182600a0154815260200182600b016040518060400160405290816000820160009054906101000a900460ff161515151581526020016001820154815250508152508484815181106117df576117de615235565b5b6020026020010181905250505080806117f790614d4c565b915050611365565b508091505090565b6000600660009054906101000a900473ffffffffffffffffffffffffffffffffffffffff16905090565b60606001805461184090614dc3565b80601f016020809104026020016040519081016040528092919081815260200182805461186c90614dc3565b80156118b95780601f1061188e576101008083540402835291602001916118b9565b820191906000526020600020905b81548152906001019060200180831161189c57829003601f168201915b5050505050905090565b6118d56118ce6129e4565b8383612d65565b5050565b600760009054906101000a900473ffffffffffffffffffffffffffffffffffffffff1681565b61190a848484610c87565b61191684848484612ed4565b50505050565b60606119278261291f565b50600061193261308b565b90506000815111611952576040518060200160405280600081525061197d565b8061195c846130a2565b60405160200161196d929190615264565b6040516020818303038152906040525b915050919050565b61198d612c18565b6000600883836040516119a1929190614a14565b908152602001604051809103902060000180546119bd90614dc3565b9050116119ff576040517f08c379a00000000000000000000000000000000000000000000000000000000081526004016119f6906152d4565b60405180910390fd5b60405180604001604052806001151581526020014281525060088383604051611a29929190614a14565b9081526020016040518091039020600b0160008201518160000160006101000a81548160ff021916908315150217905550602082015181600101559050505050565b600881805160208101820180518482526020830160208501208183528095505050505050600091509050806000018054611aa490614dc3565b80601f0160208091040260200160405190810160405280929190818152602001828054611ad090614dc3565b8015611b1d5780601f10611af257610100808354040283529160200191611b1d565b820191906000526020600020905b815481529060010190602001808311611b0057829003601f168201915b505050505090806001016040518060a0016040529081600082018054611b4290614dc3565b80601f0160208091040260200160405190810160405280929190818152602001828054611b6e90614dc3565b8015611bbb5780601f10611b9057610100808354040283529160200191611bbb565b820191906000526020600020905b815481529060010190602001808311611b9e57829003601f168201915b50505050508152602001600182018054611bd490614dc3565b80601f0160208091040260200160405190810160405280929190818152602001828054611c0090614dc3565b8015611c4d5780601f10611c2257610100808354040283529160200191611c4d565b820191906000526020600020905b815481529060010190602001808311611c3057829003601f168201915b50505050508152602001600282018054611c6690614dc3565b80601f0160208091040260200160405190810160405280929190818152602001828054611c9290614dc3565b8015611cdf5780601f10611cb457610100808354040283529160200191611cdf565b820191906000526020600020905b815481529060010190602001808311611cc257829003601f168201915b50505050508152602001600382018054611cf890614dc3565b80601f0160208091040260200160405190810160405280929190818152602001828054611d2490614dc3565b8015611d715780601f10611d4657610100808354040283529160200191611d71565b820191906000526020600020905b815481529060010190602001808311611d5457829003601f168201915b50505050508152602001600482018054611d8a90614dc3565b80601f0160208091040260200160405190810160405280929190818152602001828054611db690614dc3565b8015611e035780601f10611dd857610100808354040283529160200191611e03565b820191906000526020600020905b815481529060010190602001808311611de657829003601f168201915b50505050508152505090806006016040518060800160405290816000820154815260200160018201548152602001600282015481526020016003820160009054906101000a900460ff1615151515815250509080600a01549080600b016040518060400160405290816000820160009054906101000a900460ff16151515158152602001600182015481525050905085565b6000600560008473ffffffffffffffffffffffffffffffffffffffff1673ffffffffffffffffffffffffffffffffffffffff16815260200190815260200160002060008373ffffffffffffffffffffffffffffffffffffffff1673ffffffffffffffffffffffffffffffffffffffff16815260200190815260200160002060009054906101000a900460ff16905092915050565b60606000600b60003373ffffffffffffffffffffffffffffffffffffffff1673ffffffffffffffffffffffffffffffffffffffff1681526020019081526020016000208054905067ffffffffffffffff811115611f8957611f88613c42565b5b604051908082528060200260200182016040528015611fc257816020015b611faf6137a0565b815260200190600190039081611fa75790505b50905060005b600b60003373ffffffffffffffffffffffffffffffffffffffff1673ffffffffffffffffffffffffffffffffffffffff168152602001908152602001600020805490508110156126f1576000600b60003373ffffffffffffffffffffffffffffffffffffffff1673ffffffffffffffffffffffffffffffffffffffff168152602001908152602001600020828154811061206557612064615235565b5b9060005260206000209060040201600201805461208190614dc3565b80601f01602080910402602001604051908101604052809291908181526020018280546120ad90614dc3565b80156120fa5780601f106120cf576101008083540402835291602001916120fa565b820191906000526020600020905b8154815290600101906020018083116120dd57829003601f168201915b5050505050905060006008826040516121139190614f0e565b90815260200160405180910390206040518060a001604052908160008201805461213c90614dc3565b80601f016020809104026020016040519081016040528092919081815260200182805461216890614dc3565b80156121b55780601f1061218a576101008083540402835291602001916121b5565b820191906000526020600020905b81548152906001019060200180831161219857829003601f168201915b50505050508152602001600182016040518060a00160405290816000820180546121de90614dc3565b80601f016020809104026020016040519081016040528092919081815260200182805461220a90614dc3565b80156122575780601f1061222c57610100808354040283529160200191612257565b820191906000526020600020905b81548152906001019060200180831161223a57829003601f168201915b5050505050815260200160018201805461227090614dc3565b80601f016020809104026020016040519081016040528092919081815260200182805461229c90614dc3565b80156122e95780601f106122be576101008083540402835291602001916122e9565b820191906000526020600020905b8154815290600101906020018083116122cc57829003601f168201915b5050505050815260200160028201805461230290614dc3565b80601f016020809104026020016040519081016040528092919081815260200182805461232e90614dc3565b801561237b5780601f106123505761010080835404028352916020019161237b565b820191906000526020600020905b81548152906001019060200180831161235e57829003601f168201915b5050505050815260200160038201805461239490614dc3565b80601f01602080910402602001604051908101604052809291908181526020018280546123c090614dc3565b801561240d5780601f106123e25761010080835404028352916020019161240d565b820191906000526020600020905b8154815290600101906020018083116123f057829003601f168201915b5050505050815260200160048201805461242690614dc3565b80601f016020809104026020016040519081016040528092919081815260200182805461245290614dc3565b801561249f5780601f106124745761010080835404028352916020019161249f565b820191906000526020600020905b81548152906001019060200180831161248257829003601f168201915b5050505050815250508152602001600682016040518060800160405290816000820154815260200160018201548152602001600282015481526020016003820160009054906101000a900460ff1615151515815250508152602001600a8201548152602001600b82016040518060400160405290816000820160009054906101000a900460ff161515151581526020016001820154815250508152505090506000600b60003373ffffffffffffffffffffffffffffffffffffffff1673ffffffffffffffffffffffffffffffffffffffff168152602001908152602001600020848154811061259157612590615235565b5b906000526020600020906004020160405180608001604052908160008201548152602001600182015481526020016002820180546125ce90614dc3565b80601f01602080910402602001604051908101604052809291908181526020018280546125fa90614dc3565b80156126475780601f1061261c57610100808354040283529160200191612647565b820191906000526020600020905b81548152906001019060200180831161262a57829003601f168201915b505050505081526020016003820160009054906101000a900473ffffffffffffffffffffffffffffffffffffffff1673ffffffffffffffffffffffffffffffffffffffff1673ffffffffffffffffffffffffffffffffffffffff168152505090506040518060400160405280838152602001828152508585815181106126d0576126cf615235565b5b602002602001018190525050505080806126e990614d4c565b915050611fc8565b508091505090565b612701612c18565b600073ffffffffffffffffffffffffffffffffffffffff168173ffffffffffffffffffffffffffffffffffffffff16036127735760006040517f1e4fbdf700000000000000000000000000000000000000000000000000000000815260040161276a9190613b63565b60405180910390fd5b61277c81612c9f565b50565b60007f01ffc9a7000000000000000000000000000000000000000000000000000000007bffffffffffffffffffffffffffffffffffffffffffffffffffffffff1916827bffffffffffffffffffffffffffffffffffffffffffffffffffffffff1916149050919050565b612803828260405180602001604052806000815250613170565b5050565b600b60008573ffffffffffffffffffffffffffffffffffffffff1673ffffffffffffffffffffffffffffffffffffffff16815260200190815260200160002060405180608001604052808481526020018381526020018581526020018673ffffffffffffffffffffffffffffffffffffffff168152509080600181540180825580915050600190039060005260206000209060040201600090919091909150600082015181600001556020820151816001015560408201518160020190816128cf9190615163565b5060608201518160030160006101000a81548173ffffffffffffffffffffffffffffffffffffffff021916908373ffffffffffffffffffffffffffffffffffffffff160217905550505050505050565b60008061292b8361318c565b9050600073ffffffffffffffffffffffffffffffffffffffff168173ffffffffffffffffffffffffffffffffffffffff160361299e57826040517f7e27328900000000000000000000000000000000000000000000000000000000815260040161299591906140e8565b60405180910390fd5b80915050919050565b60006004600083815260200190815260200160002060009054906101000a900473ffffffffffffffffffffffffffffffffffffffff169050919050565b600033905090565b6129f983838360016131c9565b505050565b600080612a0a8461318c565b9050600073ffffffffffffffffffffffffffffffffffffffff168373ffffffffffffffffffffffffffffffffffffffff1614612a4c57612a4b81848661338e565b5b600073ffffffffffffffffffffffffffffffffffffffff168173ffffffffffffffffffffffffffffffffffffffff1614612add57612a8e6000856000806131c9565b6001600360008373ffffffffffffffffffffffffffffffffffffffff1673ffffffffffffffffffffffffffffffffffffffff168152602001908152602001600020600082825403925050819055505b600073ffffffffffffffffffffffffffffffffffffffff168573ffffffffffffffffffffffffffffffffffffffff1614612b60576001600360008773ffffffffffffffffffffffffffffffffffffffff1673ffffffffffffffffffffffffffffffffffffffff168152602001908152602001600020600082825401925050819055505b846002600086815260200190815260200160002060006101000a81548173ffffffffffffffffffffffffffffffffffffffff021916908373ffffffffffffffffffffffffffffffffffffffff160217905550838573ffffffffffffffffffffffffffffffffffffffff168273ffffffffffffffffffffffffffffffffffffffff167fddf252ad1be2c89b69c2b068fc378daa952ba7f163c4a11628f55a4df523b3ef60405160405180910390a4809150509392505050565b612c206129e4565b73ffffffffffffffffffffffffffffffffffffffff16612c3e611807565b73ffffffffffffffffffffffffffffffffffffffff1614612c9d57612c616129e4565b6040517f118cdaa7000000000000000000000000000000000000000000000000000000008152600401612c949190613b63565b60405180910390fd5b565b6000600660009054906101000a900473ffffffffffffffffffffffffffffffffffffffff16905081600660006101000a81548173ffffffffffffffffffffffffffffffffffffffff021916908373ffffffffffffffffffffffffffffffffffffffff1602179055508173ffffffffffffffffffffffffffffffffffffffff168173ffffffffffffffffffffffffffffffffffffffff167f8be0079c531659141344cd1fd0a4f28419497f9722a3daafe3b4186f6b6457e060405160405180910390a35050565b600073ffffffffffffffffffffffffffffffffffffffff168273ffffffffffffffffffffffffffffffffffffffff1603612dd657816040517f5b08ba18000000000000000000000000000000000000000000000000000000008152600401612dcd9190613b63565b60405180910390fd5b80600560008573ffffffffffffffffffffffffffffffffffffffff1673ffffffffffffffffffffffffffffffffffffffff16815260200190815260200160002060008473ffffffffffffffffffffffffffffffffffffffff1673ffffffffffffffffffffffffffffffffffffffff16815260200190815260200160002060006101000a81548160ff0219169083151502179055508173ffffffffffffffffffffffffffffffffffffffff168373ffffffffffffffffffffffffffffffffffffffff167f17307eab39ab6107e8899845ad3d59bd9653f200f220920489ca2b5937696c3183604051612ec7919061392d565b60405180910390a3505050565b60008373ffffffffffffffffffffffffffffffffffffffff163b1115613085578273ffffffffffffffffffffffffffffffffffffffff1663150b7a02612f186129e4565b8685856040518563ffffffff1660e01b8152600401612f3a9493929190615349565b6020604051808303816000875af1925050508015612f7657506040513d601f19601f82011682018060405250810190612f7391906153aa565b60015b612ffa573d8060008114612fa6576040519150601f19603f3d011682016040523d82523d6000602084013e612fab565b606091505b506000815103612ff257836040517f64a0ae92000000000000000000000000000000000000000000000000000000008152600401612fe99190613b63565b60405180910390fd5b805181602001fd5b63150b7a0260e01b7bffffffffffffffffffffffffffffffffffffffffffffffffffffffff1916817bffffffffffffffffffffffffffffffffffffffffffffffffffffffff19161461308357836040517f64a0ae9200000000000000000000000000000000000000000000000000000000815260040161307a9190613b63565b60405180910390fd5b505b50505050565b606060405180602001604052806000815250905090565b6060600060016130b184613452565b01905060008167ffffffffffffffff8111156130d0576130cf613c42565b5b6040519080825280601f01601f1916602001820160405280156131025781602001600182028036833780820191505090505b509050600082602001820190505b600115613165578080600190039150507f3031323334353637383961626364656600000000000000000000000000000000600a86061a8153600a858161315957613158614cec565b5b04945060008503613110575b819350505050919050565b61317a83836135a5565b6131876000848484612ed4565b505050565b60006002600083815260200190815260200160002060009054906101000a900473ffffffffffffffffffffffffffffffffffffffff169050919050565b80806132025750600073ffffffffffffffffffffffffffffffffffffffff168273ffffffffffffffffffffffffffffffffffffffff1614155b156133365760006132128461291f565b9050600073ffffffffffffffffffffffffffffffffffffffff168373ffffffffffffffffffffffffffffffffffffffff161415801561327d57508273ffffffffffffffffffffffffffffffffffffffff168173ffffffffffffffffffffffffffffffffffffffff1614155b8015613290575061328e8184611e95565b155b156132d257826040517fa9fbf51f0000000000000000000000000000000000000000000000000000000081526004016132c99190613b63565b60405180910390fd5b811561333457838573ffffffffffffffffffffffffffffffffffffffff168273ffffffffffffffffffffffffffffffffffffffff167f8c5be1e5ebec7d5bd14f71427d1e84f3dd0314c0f7b2291e5b200ac8c7c3b92560405160405180910390a45b505b836004600085815260200190815260200160002060006101000a81548173ffffffffffffffffffffffffffffffffffffffff021916908373ffffffffffffffffffffffffffffffffffffffff16021790555050505050565b61339983838361369e565b61344d57600073ffffffffffffffffffffffffffffffffffffffff168373ffffffffffffffffffffffffffffffffffffffff160361340e57806040517f7e27328900000000000000000000000000000000000000000000000000000000815260040161340591906140e8565b60405180910390fd5b81816040517f177e802f0000000000000000000000000000000000000000000000000000000081526004016134449291906153d7565b60405180910390fd5b505050565b600080600090507a184f03e93ff9f4daa797ed6e38ed64bf6a1f01000000000000000083106134b0577a184f03e93ff9f4daa797ed6e38ed64bf6a1f01000000000000000083816134a6576134a5614cec565b5b0492506040810190505b6d04ee2d6d415b85acef810000000083106134ed576d04ee2d6d415b85acef810000000083816134e3576134e2614cec565b5b0492506020810190505b662386f26fc10000831061351c57662386f26fc10000838161351257613511614cec565b5b0492506010810190505b6305f5e1008310613545576305f5e100838161353b5761353a614cec565b5b0492506008810190505b612710831061356a5761271083816135605761355f614cec565b5b0492506004810190505b6064831061358d576064838161358357613582614cec565b5b0492506002810190505b600a831061359c576001810190505b80915050919050565b600073ffffffffffffffffffffffffffffffffffffffff168273ffffffffffffffffffffffffffffffffffffffff16036136175760006040517f64a0ae9200000000000000000000000000000000000000000000000000000000815260040161360e9190613b63565b60405180910390fd5b6000613625838360006129fe565b9050600073ffffffffffffffffffffffffffffffffffffffff168173ffffffffffffffffffffffffffffffffffffffff16146136995760006040517f73c6ac6e0000000000000000000000000000000000000000000000000000000081526004016136909190613b63565b60405180910390fd5b505050565b60008073ffffffffffffffffffffffffffffffffffffffff168373ffffffffffffffffffffffffffffffffffffffff161415801561375657508273ffffffffffffffffffffffffffffffffffffffff168473ffffffffffffffffffffffffffffffffffffffff16148061371757506137168484611e95565b5b8061375557508273ffffffffffffffffffffffffffffffffffffffff1661373d836129a7565b73ffffffffffffffffffffffffffffffffffffffff16145b5b90509392505050565b6040518060a00160405280606081526020016137796137c6565b81526020016137866137f5565b81526020016000815260200161379a61381f565b81525090565b60405180604001604052806137b361375f565b81526020016137c061383b565b81525090565b6040518060a0016040528060608152602001606081526020016060815260200160608152602001606081525090565b60405180608001604052806000815260200160008152602001600081526020016000151581525090565b6040518060400160405280600015158152602001600081525090565b6040518060800160405280600081526020016000815260200160608152602001600073ffffffffffffffffffffffffffffffffffffffff1681525090565b6000604051905090565b600080fd5b600080fd5b60007fffffffff0000000000000000000000000000000000000000000000000000000082169050919050565b6138c28161388d565b81146138cd57600080fd5b50565b6000813590506138df816138b9565b92915050565b6000602082840312156138fb576138fa613883565b5b6000613909848285016138d0565b91505092915050565b60008115159050919050565b61392781613912565b82525050565b6000602082019050613942600083018461391e565b92915050565b600080fd5b600080fd5b600080fd5b60008083601f84011261396d5761396c613948565b5b8235905067ffffffffffffffff81111561398a5761398961394d565b5b6020830191508360018202830111156139a6576139a5613952565b5b9250929050565b6000819050919050565b6139c0816139ad565b81146139cb57600080fd5b50565b6000813590506139dd816139b7565b92915050565b6000806000604084860312156139fc576139fb613883565b5b600084013567ffffffffffffffff811115613a1a57613a19613888565b5b613a2686828701613957565b93509350506020613a39868287016139ce565b9150509250925092565b600081519050919050565b600082825260208201905092915050565b60005b83811015613a7d578082015181840152602081019050613a62565b60008484015250505050565b6000601f19601f8301169050919050565b6000613aa582613a43565b613aaf8185613a4e565b9350613abf818560208601613a5f565b613ac881613a89565b840191505092915050565b60006020820190508181036000830152613aed8184613a9a565b905092915050565b600060208284031215613b0b57613b0a613883565b5b6000613b19848285016139ce565b91505092915050565b600073ffffffffffffffffffffffffffffffffffffffff82169050919050565b6000613b4d82613b22565b9050919050565b613b5d81613b42565b82525050565b6000602082019050613b786000830184613b54565b92915050565b613b8781613b42565b8114613b9257600080fd5b50565b600081359050613ba481613b7e565b92915050565b60008060408385031215613bc157613bc0613883565b5b6000613bcf85828601613b95565b9250506020613be0858286016139ce565b9150509250929050565b600080600060608486031215613c0357613c02613883565b5b6000613c1186828701613b95565b9350506020613c2286828701613b95565b9250506040613c33868287016139ce565b9150509250925092565b600080fd5b7f4e487b7100000000000000000000000000000000000000000000000000000000600052604160045260246000fd5b613c7a82613a89565b810181811067ffffffffffffffff82111715613c9957613c98613c42565b5b80604052505050565b6000613cac613879565b9050613cb88282613c71565b919050565b600080fd5b600080fd5b600067ffffffffffffffff821115613ce257613ce1613c42565b5b613ceb82613a89565b9050602081019050919050565b82818337600083830152505050565b6000613d1a613d1584613cc7565b613ca2565b905082815260208101848484011115613d3657613d35613cc2565b5b613d41848285613cf8565b509392505050565b600082601f830112613d5e57613d5d613948565b5b8135613d6e848260208601613d07565b91505092915050565b600060a08284031215613d8d57613d8c613c3d565b5b613d9760a0613ca2565b9050600082013567ffffffffffffffff811115613db757613db6613cbd565b5b613dc384828501613d49565b600083015250602082013567ffffffffffffffff811115613de757613de6613cbd565b5b613df384828501613d49565b602083015250604082013567ffffffffffffffff811115613e1757613e16613cbd565b5b613e2384828501613d49565b604083015250606082013567ffffffffffffffff811115613e4757613e46613cbd565b5b613e5384828501613d49565b606083015250608082013567ffffffffffffffff811115613e7757613e76613cbd565b5b613e8384828501613d49565b60808301525092915050565b613e9881613912565b8114613ea357600080fd5b50565b600081359050613eb581613e8f565b92915050565b600060808284031215613ed157613ed0613c3d565b5b613edb6080613ca2565b90506000613eeb848285016139ce565b6000830152506020613eff848285016139ce565b6020830152506040613f13848285016139ce565b6040830152506060613f2784828501613ea6565b60608301525092915050565b600060408284031215613f4957613f48613c3d565b5b613f536040613ca2565b90506000613f6384828501613ea6565b6000830152506020613f77848285016139ce565b60208301525092915050565b60006101008284031215613f9a57613f99613c3d565b5b613fa46080613ca2565b9050600082013567ffffffffffffffff811115613fc457613fc3613cbd565b5b613fd084828501613d49565b600083015250602082013567ffffffffffffffff811115613ff457613ff3613cbd565b5b61400084828501613d77565b602083015250604061401484828501613ebb565b60408301525060c061402884828501613f33565b60608301525092915050565b60006020828403121561404a57614049613883565b5b600082013567ffffffffffffffff81111561406857614067613888565b5b61407484828501613f83565b91505092915050565b6000806040838503121561409457614093613883565b5b60006140a285828601613b95565b925050602083013567ffffffffffffffff8111156140c3576140c2613888565b5b6140cf85828601613d49565b9150509250929050565b6140e2816139ad565b82525050565b60006020820190506140fd60008301846140d9565b92915050565b600060808201905061411860008301876140d9565b61412560208301866140d9565b81810360408301526141378185613a9a565b90506141466060830184613b54565b95945050505050565b60006020828403121561416557614164613883565b5b600061417384828501613b95565b91505092915050565b600081519050919050565b600082825260208201905092915050565b6000819050602082019050919050565b600082825260208201905092915050565b60006141c482613a43565b6141ce81856141a8565b93506141de818560208601613a5f565b6141e781613a89565b840191505092915050565b600060a083016000830151848203600086015261420f82826141b9565b9150506020830151848203602086015261422982826141b9565b9150506040830151848203604086015261424382826141b9565b9150506060830151848203606086015261425d82826141b9565b9150506080830151848203608086015261427782826141b9565b9150508091505092915050565b61428d816139ad565b82525050565b61429c81613912565b82525050565b6080820160008201516142b86000850182614284565b5060208201516142cb6020850182614284565b5060408201516142de6040850182614284565b5060608201516142f16060850182614293565b50505050565b60408201600082015161430d6000850182614293565b5060208201516143206020850182614284565b50505050565b600061012083016000830151848203600086015261434482826141b9565b9150506020830151848203602086015261435e82826141f2565b915050604083015161437360408601826142a2565b50606083015161438660c0860182614284565b50608083015161439960e08601826142f7565b508091505092915050565b60006143b08383614326565b905092915050565b6000602082019050919050565b60006143d08261417c565b6143da8185614187565b9350836020820285016143ec85614198565b8060005b85811015614428578484038952815161440985826143a4565b9450614414836143b8565b925060208a019950506001810190506143f0565b50829750879550505050505092915050565b6000602082019050818103600083015261445481846143c5565b905092915050565b6000806040838503121561447357614472613883565b5b600061448185828601613b95565b925050602061449285828601613ea6565b9150509250929050565b60006144a782613b22565b9050919050565b6144b78161449c565b82525050565b60006020820190506144d260008301846144ae565b92915050565b600067ffffffffffffffff8211156144f3576144f2613c42565b5b6144fc82613a89565b9050602081019050919050565b600061451c614517846144d8565b613ca2565b90508281526020810184848401111561453857614537613cc2565b5b614543848285613cf8565b509392505050565b600082601f8301126145605761455f613948565b5b8135614570848260208601614509565b91505092915050565b6000806000806080858703121561459357614592613883565b5b60006145a187828801613b95565b94505060206145b287828801613b95565b93505060406145c3878288016139ce565b925050606085013567ffffffffffffffff8111156145e4576145e3613888565b5b6145f08782880161454b565b91505092959194509250565b6000806020838503121561461357614612613883565b5b600083013567ffffffffffffffff81111561463157614630613888565b5b61463d85828601613957565b92509250509250929050565b60006020828403121561465f5761465e613883565b5b600082013567ffffffffffffffff81111561467d5761467c613888565b5b61468984828501613d49565b91505092915050565b600060a08301600083015184820360008601526146af82826141b9565b915050602083015184820360208601526146c982826141b9565b915050604083015184820360408601526146e382826141b9565b915050606083015184820360608601526146fd82826141b9565b9150506080830151848203608086015261471782826141b9565b9150508091505092915050565b60808201600082015161473a6000850182614284565b50602082015161474d6020850182614284565b5060408201516147606040850182614284565b5060608201516147736060850182614293565b50505050565b60408201600082015161478f6000850182614293565b5060208201516147a26020850182614284565b50505050565b60006101208201905081810360008301526147c38188613a9a565b905081810360208301526147d78187614692565b90506147e66040830186614724565b6147f360c08301856140d9565b61480060e0830184614779565b9695505050505050565b6000806040838503121561482157614820613883565b5b600061482f85828601613b95565b925050602061484085828601613b95565b9150509250929050565b600081519050919050565b600082825260208201905092915050565b6000819050602082019050919050565b61487f81613b42565b82525050565b600060808301600083015161489d6000860182614284565b5060208301516148b06020860182614284565b50604083015184820360408601526148c882826141b9565b91505060608301516148dd6060860182614876565b508091505092915050565b600060408301600083015184820360008601526149058282614326565b9150506020830151848203602086015261491f8282614885565b9150508091505092915050565b600061493883836148e8565b905092915050565b6000602082019050919050565b60006149588261484a565b6149628185614855565b93508360208202850161497485614866565b8060005b858110156149b05784840389528151614991858261492c565b945061499c83614940565b925060208a01995050600181019050614978565b50829750879550505050505092915050565b600060208201905081810360008301526149dc818461494d565b905092915050565b600081905092915050565b60006149fb83856149e4565b9350614a08838584613cf8565b82840190509392505050565b6000614a218284866149ef565b91508190509392505050565b7f4d696e74696e67206973206e6f7420656e61626c656420666f7220746869732060008201527f696d616765000000000000000000000000000000000000000000000000000000602082015250565b6000614a89602583613a4e565b9150614a9482614a2d565b604082019050919050565b60006020820190508181036000830152614ab881614a7c565b9050919050565b7f4e487b7100000000000000000000000000000000000000000000000000000000600052601160045260246000fd5b6000614af9826139ad565b9150614b04836139ad565b9250828201905080821115614b1c57614b1b614abf565b5b92915050565b7f4578636565646564206d6178696d756d207065722077616c6c6574206c696d6960008201527f7400000000000000000000000000000000000000000000000000000000000000602082015250565b6000614b7e602183613a4e565b9150614b8982614b22565b604082019050919050565b60006020820190508181036000830152614bad81614b71565b9050919050565b7f457863656564656420746f74616c206c696d697420666f72207468697320696d60008201527f6167650000000000000000000000000000000000000000000000000000000000602082015250565b6000614c10602383613a4e565b9150614c1b82614bb4565b604082019050919050565b60006020820190508181036000830152614c3f81614c03565b9050919050565b60008160601b9050919050565b6000614c5e82614c46565b9050919050565b6000614c7082614c53565b9050919050565b614c88614c8382613b42565b614c65565b82525050565b6000819050919050565b614ca9614ca4826139ad565b614c8e565b82525050565b6000614cbb8286614c77565b601482019150614ccb8285614c98565b602082019150614cdb8284614c98565b602082019150819050949350505050565b7f4e487b7100000000000000000000000000000000000000000000000000000000600052601260045260246000fd5b6000614d26826139ad565b9150614d31836139ad565b925082614d4157614d40614cec565b5b828206905092915050565b6000614d57826139ad565b91507fffffffffffffffffffffffffffffffffffffffffffffffffffffffffffffffff8203614d8957614d88614abf565b5b600182019050919050565b7f4e487b7100000000000000000000000000000000000000000000000000000000600052602260045260246000fd5b60006002820490506001821680614ddb57607f821691505b602082108103614dee57614ded614d94565b5b50919050565b6000606082019050614e096000830186613b54565b614e1660208301856140d9565b614e236040830184613b54565b949350505050565b600081905092915050565b50565b6000614e46600083614e2b565b9150614e5182614e36565b600082019050919050565b6000614e6782614e39565b9150819050919050565b7f5769746864726177616c206661696c6564000000000000000000000000000000600082015250565b6000614ea7601183613a4e565b9150614eb282614e71565b602082019050919050565b60006020820190508181036000830152614ed681614e9a565b9050919050565b6000614ee882613a43565b614ef281856149e4565b9350614f02818560208601613a5f565b80840191505092915050565b6000614f1a8284614edd565b915081905092915050565b7f496d6167652077697468207468697320494420616c726561647920657869737460008201527f7300000000000000000000000000000000000000000000000000000000000000602082015250565b6000614f81602183613a4e565b9150614f8c82614f25565b604082019050919050565b60006020820190508181036000830152614fb081614f74565b9050919050565b60008190508160005260206000209050919050565b60006020601f8301049050919050565b600082821b905092915050565b6000600883026150197fffffffffffffffffffffffffffffffffffffffffffffffffffffffffffffffff82614fdc565b6150238683614fdc565b95508019841693508086168417925050509392505050565b6000819050919050565b600061506061505b615056846139ad565b61503b565b6139ad565b9050919050565b6000819050919050565b61507a83615045565b61508e61508682615067565b848454614fe9565b825550505050565b600090565b6150a3615096565b6150ae818484615071565b505050565b5b818110156150d2576150c760008261509b565b6001810190506150b4565b5050565b601f821115615117576150e881614fb7565b6150f184614fcc565b81016020851015615100578190505b61511461510c85614fcc565b8301826150b3565b50505b505050565b600082821c905092915050565b600061513a6000198460080261511c565b1980831691505092915050565b60006151538383615129565b9150826002028217905092915050565b61516c82613a43565b67ffffffffffffffff81111561518557615184613c42565b5b61518f8254614dc3565b61519a8282856150d6565b600060209050601f8311600181146151cd57600084156151bb578287015190505b6151c58582615147565b86555061522d565b601f1984166151db86614fb7565b60005b82811015615203578489015182556001820191506020850194506020810190506151de565b86831015615220578489015161521c601f891682615129565b8355505b6001600288020188555050505b505050505050565b7f4e487b7100000000000000000000000000000000000000000000000000000000600052603260045260246000fd5b60006152708285614edd565b915061527c8284614edd565b91508190509392505050565b7f496d616765206e6f7420666f756e640000000000000000000000000000000000600082015250565b60006152be600f83613a4e565b91506152c982615288565b602082019050919050565b600060208201905081810360008301526152ed816152b1565b9050919050565b600081519050919050565b600082825260208201905092915050565b600061531b826152f4565b61532581856152ff565b9350615335818560208601613a5f565b61533e81613a89565b840191505092915050565b600060808201905061535e6000830187613b54565b61536b6020830186613b54565b61537860408301856140d9565b818103606083015261538a8184615310565b905095945050505050565b6000815190506153a4816138b9565b92915050565b6000602082840312156153c0576153bf613883565b5b60006153ce84828501615395565b91505092915050565b60006040820190506153ec6000830185613b54565b6153f960208301846140d9565b939250505056fea2646970667358221220d72a8aa5611c6d83f3a86b0606e3113dbcd13d7b0b3e0d9ed09e466409bd448664736f6c63430008140033",
  "linkReferences": {},
  "deployedLinkReferences": {}
}